:020000040800F2
:100000000050002081010008D1010008D101000842
:10001000D1010008D1010008D10100080000000052
:10002000000000000000000000000000D1010008F6
:10003000D101000800000000D1010008D101000832
:10004000D1010008D1010008D1010008D101000848
:10005000D1010008D1010008D1010008D101000838
:10006000D1010008D1010008D1010008D101000828
:10007000D1010008D1010008D1010008D101000818
:10008000D1010008D1010008D1010008D101000808
:10009000D1010008D1010008D1010008D1010008F8
:1000A000D1010008D1010008D1010008D1010008E8
:1000B000D1010008D1010008D1010008D1010008D8
:1000C000D1010008D1010008D1010008D1010008C8
:1000D000D1010008D1010008D1010008D1010008B8
:1000E000D1010008D101000800000000D101000882
:1000F000D1010008D1010008D1010008D101000898
:10010000D1010008D1010008D1010008D101000887
:10011000D1010008D1010008D1010008D101000877
:10012000D1010008D1010008D1010008D101000867
:1001300010B5054C237833B9044B13B10448AFF321
:1001400000800123237010BD00000020000000008B
:100150001C02000808B5034B1BB103490348AFF369
:10016000008008BD00000000040000201C02000800
:1001700080B400AF00231846BD4680BC7047000025
:100180000D488546AFF300800C480D490D4A002309
:1001900002E0D458C4500433C4188C42F9D30A4A3C
:1001A0000A4C002301E013600432A242FBD300F0AA
:1001B00011F8FFF7DDFFFEE70050002000000020EF
:1001C000000000203C020008000000201C0000206D
:1001D000FEE7000070B500260C4D0D4C641BA4100A
:1001E000A64209D100F01AF800260A4D0A4C641BF9
:1001F000A410A64205D170BD55F8043B98470136BE
:10020000EEE755F8043B98470136F2E73402000860
:10021000340200083402000838020008F8B500BFB4
:10022000F8BC08BC9E467047F8B500BFF8BC08BCD7
:040230009E4670472F
:040234005501000868
:040238003101000888
:04000005080001816D
:00000001FF
