:020000040800F2
:100000000050002039090008810900088109000812
:10001000810900088109000881090008000000002A
:10002000000000000000000000000000810900083E
:100030008109000800000000810900085D01000836
:100040008109000881090008810900088109000868
:1000500081090008810900086D0100088109000874
:100060008109000881090008810900088109000848
:100070008109000881090008810900088109000838
:100080008109000881090008810900087D01000834
:10009000910100089D010008A901000881090008DC
:1000A0008109000881090008810900088109000808
:1000B00081090008810900088109000881090008F8
:1000C00081090008810900088109000881090008E8
:1000D00081090008810900088109000881090008D8
:1000E000810900088109000881090008000000005A
:1000F0000000000000000000000000000000000000
:0C01000000000000000000005FF808F1A3
:10010C0010B5054C237833B9044B13B10448AFF345
:10011C0000800123237010BD70000020000000003F
:10012C00A831000808B5034B1BB103490348AFF3D2
:10013C00008008BD0000000074000020A8310008F9
:10014C00034613F8012B002AFBD1181A013870470B
:10015C0080B500AF00F056FC01F0DAFB00BF80BDAB
:10016C0080B500AF012001F063FD00BF80BD000031
:10017C0080B500AF024801F0A1F800BF80BD00BF00
:10018C00E000002080B400AF00BFBD4680BC7047CB
:10019C0080B400AF00BFBD4680BC704780B400AFD8
:1001AC0000BFBD4680BC70470FB480B596B000AFA1
:1001BC0007F164037B6007F108037A68396E18460F
:1001CC0002F0C8FB07F108031846FFF7B9FF034616
:1001DC009AB207F108014FF0FF33054802F09EF97F
:1001EC0000BF5837BD46BDE8804004B0704700BF23
:1001FC009800002080B500AF00F0BEFB382000F066
:10020C0025F800F0ADF800F019F900F04BF900F00A
:10021C00C1F90C48FFF7C8FF40F203410A4801F04E
:10022C0028F80346002B01D000F096F8064800F0A1
:10023C00C9FD0346002B01D000F08EF800F06CF9DC
:10024C00FEE700BFC0310008E000002080B592B08E
:10025C0000AF0346FB7107F11C032822002118464E
:10026C0002F05AFB07F1080300221A605A609A60E8
:10027C00DA601A610323FB610123FB624FF48033C4
:10028C003B620123FB6210233B630223BB6300230D
:10029C00FB63FB79482B23D0482B56DC242B02D054
:1002AC00382B0ED051E04FF4E0133B640F23BB60AE
:1002BC000223FB6000233B6100237B610023BB61B5
:1002CC0023E04FF440133B640F23BB600223FB601D
:1002DC0000233B614FF480637B610023BB6114E01E
:1002EC000123FB614FF480333B624FF48033FB639B
:1002FC004FF4E0133B640223FB6000233B614FF49B
:10030C0080637B610023BB6100BF07F11C031846AF
:10031C0001F0A6FC07F108030221184601F020FFAA
:10032C0002F05CF878647B6C0A4AA2FB03239B09FD
:10033C00184601F0C4FA042001F0CEFA0022002184
:10034C004FF0FF3001F091FA00E000BF4837BD4696
:10035C0080BD00BFD34D621080B400AFFEE700003B
:10036C0080B58EB000AF314B9B69304A43F0080327
:10037C0093612E4B9B6903F008037B607B6807F14C
:10038C00280300221A605A609A60DA600123FB622B
:10039C000423BB6200233B6302237B6307F1280326
:1003AC001946234801F0C0FA204B9B691F4A43F0C1
:1003BC00040393611D4B9B6903F004033B603B6892
:1003CC0007F1180300221A605A609A60DA60012360
:1003DC00FB612023BB6100233B6202237B6207F19C
:1003EC0018031946134801F09FFA07F1080300227D
:1003FC001A605A609A60DA600F4BFB600123BB6095
:10040C0002233B6102237B6107F10803194609486B
:10041C0001F08AFA00220F21062001F026FA0620AC
:10042C0001F03FFA00BF3837BD4680BD00100240D6
:10043C00000C0140000801400000211080B500AF05
:10044C00114B124A1A60104B4FF4E1325A600E4BAA
:10045C0000229A600C4B0022DA600B4B00221A61CE
:10046C00094B0C225A61084B00229A61064B002260
:10047C00DA61054802F002F80346002B01D0FFF7C1
:10048C006BFF00BF80BD00BF9800002000440040FF
:10049C0080B483B000AF0346FB8000BF0C37BD4671
:1004AC0080BC704780B500AF194B1A4A1A60184BC4
:1004BC004FF080429A60164B00225A76144B012260
:1004CC00DA76134B00229A76114B00221A77104BD6
:1004DC0000221A770E4B00221A760D4B00225A7707
:1004EC000B4B04225A600A4B0022DA60084B4FF483
:1004FC0020221A61064B4FF480125A61044800F016
:10050C009DFA0346002B01D0FFF726FF00BF80BDEC
:10051C00E00000200064004080B58AB000AF07F115
:10052C00100300221A605A609A60DA601A615A61EC
:10053C0005233B6240F25D633B610023BB610023FA
:10054C00FB61124A07F1080392E8030018600433B8
:10055C00197000237B603B1D07F1080207F11001A5
:10056C000B4800F073FC0346002B01D0FFF7F4FEA0
:10057C0000BF7B681946064800F037FD0346002B88
:10058C00F7D100BF00BF2837BD4680BDEC31000855
:10059C00E000002080B58AB000AF01233B6200234D
:1005AC007B6100233B6100233B6000237B600023C5
:1005BC00BB600023FB600023BB610123FB613B4656
:1005CC001946064800F035FB0346002B01D0FFF717
:1005DC00C3FE00BF2837BD4680BD00BFE000002031
:1005EC0080B582B000AF78600348FFF7DDFD00BF37
:1005FC000837BD4680BD00BF1832000880B582B0F8
:10060C0000AF78600348FFF7CFFD00BF0837BD4649
:10061C0080BD00BF3432000880B582B000AF786076
:10062C000348FFF7C1FD00BF0837BD4680BD00BFC2
:10063C005032000880B58CB000AF786007F114031D
:10064C0000221A605A609A60DA601A615A619A61E3
:10065C0007F10C0307F114020021094800F0E8FC33
:10066C000346002B01D0FFF777FE07F10C03194668
:10067C000448FFF799FD00BF3037BD4680BD00BF71
:10068C00E0000020F431000880B582B000AF786043
:10069C000348FFF789FD00BF0837BD4680BD00BF8A
:1006AC006C32000880B584B000AF032001F0D2F8A2
:1006BC00204B5B6A1F4A43F4E02353620022002163
:1006CC006FF00B0001F0D1F8002200216FF00A004E
:1006DC0001F0CBF8002200216FF0090001F0C5F801
:1006EC00154B9B69144A43F001039361124B9B69B0
:1006FC0003F00103BB60BB680F4BDB690E4A43F090
:10070C008053D3610C4BDB6903F080537B607B68B7
:10071C000A4B5B68FB60FB6823F0E063FB60FB68E3
:10072C0043F00073FB60054AFB68536000BF103751
:10073C00BD4680BD00ED00E000100240000001400D
:10074C0080B588B000AF786007F1100300221A6002
:10075C005A609A60DA607B681B681F4A934237D1F3
:10076C001E4BDB691D4A43F40033D3611B4BDB6921
:10077C0003F40033FB60FB68184B9B69174A43F08A
:10078C0004039361154B9B6903F00403BB60BB68C6
:10079C0004233B6102237B610323FB6107F11003FC
:1007AC0019460F4801F0C0F808233B6100237B6118
:1007BC000023BB6107F110031946094801F0B4F896
:1007CC0000220021262001F050F8262001F069F8C3
:1007DC0000BF2037BD4680BD0044004000100240E1
:1007EC000008014080B588B000AF78602F4BDB6902
:1007FC002E4A43F00073D3612C4BDB6903F000737A
:10080C00FB60FB68294B9B69284A43F00403936106
:10081C00264B9B6903F00403BB60BB6807F1100314
:10082C0000221A605A609A60DA604FF400633B61F0
:10083C0000237B610023BB6107F1100319461C48A0
:10084C0001F072F84FF480533B6102237B61032368
:10085C00FB610023BB6107F110031946144801F03A
:10086C0063F800220F21132000F0FFFF00220F215C
:10087C00142000F0FAFF00220F21142000F0F5FFE5
:10088C0000220F21162000F0F0FF132001F009F8D0
:10089C00142001F006F8142001F003F8162001F0E2
:1008AC0000F800BF2037BD4680BD00BF00100240DD
:1008BC000008014080B586B000AF7860144A154B33
:1008CC00D31A7B617B693B61134B1B68002B02D1F4
:1008DC00114B124A1A60104B1A687B6813443A6920
:1008EC009A4207D201F0EEFF03460C221A604FF039
:1008FC00FF3309E0084B1B68FB60074B1A687B68E9
:10090C001344054A1360FB6818461837BD4680BD72
:10091C0000500020000400008C000020200100206A
:10092C0080B400AF00BFBD4680BC7047FFF7F8FF36
:10093C000B480C490C4A002302E0D458C450043331
:10094C00C4188C42F9D3094A094C002301E0136006
:10095C000432A242FBD301F0BBFFFFF74BFC704704
:10096C000000002070000020EC3200087000002015
:10097C001C010020FEE7000080B500AF084B1B688F
:10098C00074A43F010031360032000F063FF0F20AD
:10099C0000F008F8FFF786FE0023184680BD00BF64
:1009AC000020024080B582B000AF7860124B1A680C
:1009BC00124B1B7819464FF47A73B3FBF1F3B2FB6D
:1009CC00F3F3184600F07BFF0346002B01D0012304
:1009DC000EE07B680F2B0AD8002279684FF0FF30AD
:1009EC0000F043FF064A7B681360002300E00123FC
:1009FC0018460837BD4680BD0000002008000020C6
:100A0C000400002080B400AF054B1B781A46054B40
:100A1C001B681344034A136000BFBD4680BC70477B
:100A2C00080000200801002080B400AF024B1B68B6
:100A3C001846BD4680BC70470801002080B584B0C4
:100A4C0000AF78607B68002B01D10123EDE07B685F
:100A5C0093F82030DBB2002B02D17868FFF7C2FE8E
:100A6C007B681B681A687B681B6842F001021A607D
:100A7C00FFF7DAFFF86012E0FFF7D6FF0246FB68DB
:100A8C00D31A0A2B0BD97B685B6A43F400327B6860
:100A9C005A627B68052283F820200123C5E07B681D
:100AAC001B685B6803F00103002BE5D07B681B68B7
:100ABC001A687B681B6822F002021A60FFF7B4FF09
:100ACC00F86012E0FFF7B0FF0246FB68D31A0A2B5E
:100ADC000BD97B685B6A43F400327B685A627B6893
:100AEC00052283F8202001239FE07B681B685B684C
:100AFC0003F00203002BE5D17B681B7E012B08D190
:100B0C007B681B681A687B681B6842F080021A605D
:100B1C0007E07B681B681A687B681B6822F0800200
:100B2C001A607B685B7E012B08D17B681B681A6896
:100B3C007B681B6842F040021A6007E07B681B6808
:100B4C001A687B681B6822F040021A607B689B7EE7
:100B5C00012B08D17B681B681A687B681B6842F004
:100B6C0020021A6007E07B681B681A687B681B68A8
:100B7C0022F020021A607B68DB7E012B08D17B6897
:100B8C001B681A687B681B6822F010021A6007E069
:100B9C007B681B681A687B681B6842F010021A603D
:100BAC007B681B7F012B08D17B681B681A687B68EC
:100BBC001B6842F008021A6007E07B681B681A6821
:100BCC007B681B6822F008021A607B685B7F012B34
:100BDC0008D17B681B681A687B681B6842F00402AA
:100BEC001A6007E07B681B681A687B681B6822F038
:100BFC0004021A607B689A687B68DB681A437B681E
:100C0C001B691A437B685B6942EA03017B685B687A
:100C1C005A1E7B681B680A43DA617B6800225A62A1
:100C2C007B68012283F82020002318461037BD462C
:100C3C0080BD80B487B000AF786039607B681B687A
:100C4C007B617B6893F82030FB74FB7C012B03D019
:100C5C00FB7C022B40F0AA807B69D3F8003243F076
:100C6C0001027B69C3F800223B685B6903F01F0338
:100C7C00012202FA03F3FB607B69D3F81C22FB68A8
:100C8C00DB431A407B69C3F81C223B68DB69002BF1
:100C9C0023D17B69D3F80C22FB68DB431A407B69B8
:100CAC00C3F80C223B68DB6819043B685B689BB299
:100CBC003A68526919437B69483243F832103B68F1
:100CCC009B6819043B681B689AB23B685B690A43D2
:100CDC0079694833DB000B445A603B68DB69012BB4
:100CEC0022D17B69D3F80C22FB681A437B69C3F8C9
:100CFC000C223B681B6819043B685B689BB23A6822
:100D0C00526919437B69483243F832103B689B683F
:100D1C0019043B68DB689AB23B685B690A437969E2
:100D2C004833DB000B445A603B689B69002B09D1AC
:100D3C007B69D3F80422FB68DB431A407B69C3F858
:100D4C00042207E07B69D3F80422FB681A437B6911
:100D5C00C3F804223B681B69002B09D17B69D3F8CB
:100D6C001422FB68DB431A407B69C3F8142207E0AA
:100D7C007B69D3F81422FB681A437B69C3F81422ED
:100D8C003B681B6A012B07D17B69D3F81C22FB68DB
:100D9C001A437B69C3F81C227B69D3F8003223F019
:100DAC0001027B69C3F80022002306E07B685B6AC2
:100DBC0043F480227B685A62012318461C37BD46D7
:100DCC0080BC704780B584B000AF78607B6893F8C6
:100DDC002030DBB2012B2ED17B68022283F820203D
:100DEC007B681B681A687B681B6822F001021A601A
:100DFC00FFF71AFEF86012E0FFF716FE0246FB68DA
:100E0C00D31A0A2B0BD97B685B6A43F400327B68DC
:100E1C005A627B68052283F82020012312E07B684C
:100E2C001B685B6803F00103002BE5D17B68002293
:100E3C005A62002306E07B685B6A43F400227B68FD
:100E4C005A62012318461037BD4680BD80B489B064
:100E5C0000AFF860B9607A603B60FB6893F82030B3
:100E6C00FB77FB681B689B68BB61FB7F012B03D086
:100E7C00FB7F022B40F0AD80BB6903F08063002B3D
:100E8C000AD1BB6903F00063002B05D1BB6903F0E9
:100E9C008053002B00F09580BB691B0E03F00303FD
:100EAC007B6101227B699A403B681A60BB689B6836
:100EBC00002B0DD1BB681B685A05BB68DB68F96851
:100ECC0009681A437B6918331B010B441A600FE045
:100EDC00BB685B68DA00BB689B681A43BB68DB685D
:100EEC00F96809681A437B6918331B010B441A60B3
:100EFC00FB681968BB681A697B6918331B010B44C2
:100F0C0004331A60BB681B7D012B11D1FB681A6876
:100F1C007B6918331B01134404331B68FA6811688E
:100F2C0043F480727B6918331B010B4404331A6041
:100F3C007B6807331B781A067B6806331B781B0407
:100F4C001A437B6805331B781B0213437A680432FF
:100F5C0012781046FA68116843EA00027B691B019B
:100F6C000B4403F5C6731A607B6803331B781A06AF
:100F7C007B6802331B781B041A437B6801331B7894
:100F8C001B0213437A6812781046FA68116843EA18
:100F9C0000027B691B010B4403F5C4731A60FB68E8
:100FAC001A687B6918331B0113441B68FA681168B3
:100FBC0043F001027B6918331B010B441A600023B8
:100FCC000EE0FB685B6A43F40012FB685A62012373
:100FDC0006E0FB685B6A43F48022FB685A620123DB
:100FEC0018462437BD4680BC704780B485B000AF2E
:100FFC00786039600023FB607B6893F82030FB72CB
:10100C00FB7A012B02D0FB7A022B0BD17B681B687D
:10101C009A683B689B061A403B689B069A4201D033
:10102C000123FB60FB6818461437BD4680BC704733
:10103C0080B487B000AFF860B9607A603B60FB6841
:10104C0093F82030FB75FB7D012B03D0FB7D022B2D
:10105C0040F00381BB68002B0ED1FB681B68DB687A
:10106C0003F00303002B16D1FB685B6A43F40012F8
:10107C00FB685A620123F7E0FB681B681B6903F0ED
:10108C000303002B07D1FB685B6A43F40012FB6877
:10109C005A620123E8E0FB681A68BB681B331B012A
:1010AC0013441B6803F004027B689A607B689B689E
:1010BC00002B0CD1FB681A68BB681B331B01134453
:1010CC001B685B0DC3F30A027B681A600BE0FB68BC
:1010DC001A68BB681B331B0113441B68DB0823F025
:1010EC0060427B685A60FB681A68BB681B331B0143
:1010FC0013441B6803F002027B68DA60FB681A6811
:10110C00BB681B331B01134404331B6803F0080337
:10111C00002B03D07B6808221A610BE0FB681A686D
:10112C00BB681B331B01134404331B6803F00F0211
:10113C007B681A61FB681A68BB681B331B0113447C
:10114C0004331B681B0ADAB27B689A61FB681A6865
:10115C00BB681B331B01134404331B681B0C9AB272
:10116C007B685A61FB681A68BB681B01134403F562
:10117C00DC731B68DAB23B681A70FB681A68BB68D0
:10118C001B01134403F5DC731B681A0A3B6801331B
:10119C00D2B21A70FB681A68BB681B01134403F5C2
:1011AC00DC731B681A0C3B680233D2B21A70FB68F2
:1011BC001A68BB681B01134403F5DC731B681A0E19
:1011CC003B680333D2B21A70FB681A68BB681B0108
:1011DC00134403F5DE731A683B680433D2B21A70F9
:1011EC00FB681A68BB681B01134403F5DE731B68AC
:1011FC001A0A3B680533D2B21A70FB681A68BB68CE
:10120C001B01134403F5DE731B681A0C3B68063391
:10121C00D2B21A70FB681A68BB681B01134403F541
:10122C00DE731B681A0E3B680733D2B21A70BB68A8
:10123C00002B08D1FB681B68DA68FB681B6842F05E
:10124C002002DA6007E0FB681B681A69FB681B6800
:10125C0042F020021A61002306E0FB685B6A43F44B
:10126C008022FB685A62012318461C37BD4680BC9D
:10127C00704780B485B000AF786039607B6893F8B4
:10128C002030FB73FB7B012B02D0FB7B022B09D1A3
:10129C007B681B6859697B681B683A680A435A610A
:1012AC00002306E07B685B6A43F480227B685A6209
:1012BC00012318461437BD4680BC704780B58AB0F0
:1012CC0000AF786000237B627B681B685B693B62C4
:1012DC007B681B685B68FB617B681B689B68BB61F8
:1012EC007B681B68DB687B617B681B681B693B61E7
:1012FC007B681B689B69FB603B6A03F00103002B56
:10130C007CD0BB6903F00103002B23D07B681B68E6
:10131C0001229A60BB6903F00203002B03D07868AA
:10132C00FFF75EF916E0BB6903F00403002B04D051
:10133C007B6A43F400637B620CE0BB6903F0080337
:10134C00002B04D07B6A43F480537B6202E0786804
:10135C0000F06BF9BB6903F48073002B24D07B681D
:10136C001B684FF480729A60BB6903F40073002B06
:10137C0003D07868FFF742F916E0BB6903F4806389
:10138C00002B04D07B6A43F400537B620CE0BB69F6
:10139C0003F40063002B04D07B6A43F480437B622C
:1013AC0002E0786800F04AF9BB6903F48033002B43
:1013BC0024D07B681B684FF480329A60BB6903F4BD
:1013CC000033002B03D07868FFF726F916E0BB69D1
:1013DC0003F48023002B04D07B6A43F400437B622C
:1013EC000CE0BB6903F40023002B04D07B6A43F4AC
:1013FC0080337B6202E0786800F029F93B6A03F0E5
:10140C000803002B0CD07B6903F01003002B07D0D2
:10141C007B6A43F400737B627B681B681022DA6082
:10142C003B6A03F00403002B0BD07B6903F0080329
:10143C00002B06D07B681B680822DA60786800F005
:10144C000FF93B6A03F00203002B09D07B681B6881
:10145C00DB6803F00303002B02D07868FFF7EAF88F
:10146C003B6A03F04003002B0CD03B6903F01003E4
:10147C00002B07D07B6A43F480637B627B681B681C
:10148C0010221A613B6A03F02003002B0BD03B693E
:10149C0003F00803002B06D07B681B6808221A6136
:1014AC00786800F0EFF83B6A03F01003002B09D0CA
:1014BC007B681B681B6903F00303002B02D0786860
:1014CC0000F0D7F83B6A03F40033002B0BD0FB6918
:1014DC0003F01003002B06D07B681B6810225A60A7
:1014EC00786800F0D8F83B6A03F48033002B0BD0FB
:1014FC00FB6903F00803002B06D07B681B680822ED
:10150C005A60786800F0D0F83B6A03F40043002B73
:10151C007BD0FB6903F00403002B72D03B6A03F40D
:10152C008073002B08D0FB6803F00103002B03D061
:10153C007B6A43F001037B623B6A03F40073002B6C
:10154C0008D0FB6803F00203002B03D07B6A43F046
:10155C0002037B623B6A03F48063002B08D0FB68B8
:10156C0003F00403002B03D07B6A43F004037B627B
:10157C003B6A03F40063002B43D0FB6803F0700359
:10158C00002B3ED0FB6803F07003602B2BD0602B3C
:10159C002ED8502B22D0502B2AD8402B19D0402B90
:1015AC0026D8302B10D0302B22D8102B02D0202B49
:1015BC0005D01DE07B6A43F008037B6219E07B6A6F
:1015CC0043F010037B6214E07B6A43F020037B62E0
:1015DC000FE07B6A43F040037B620AE07B6A43F0D6
:1015EC0080037B6205E07B6A43F480737B6200E0DE
:1015FC0000BF7B681B689A697B681B6822F07002CD
:10160C009A617B681B6804225A607B6A002B08D0A5
:10161C007B685A6A7B6A1A437B685A627868FFF760
:10162C0033F800BF2837BD4680BD80B483B000AF0F
:10163C00786000BF0C37BD4680BC704780B483B067
:10164C0000AF786000BF0C37BD4680BC704780B4DB
:10165C0083B000AF786000BF0C37BD4680BC7047CC
:10166C0080B483B000AF786000BF0C37BD4680BC3F
:10167C00704780B483B000AF786000BF0C37BD46B4
:10168C0080BC704780B483B000AF786000BF0C376B
:10169C00BD4680BC704780B483B000AF786000BF9B
:1016AC000C37BD4680BC704780B483B000AF786007
:1016BC0000BF0C37BD4680BC7047000080B485B0BD
:1016CC0000AF78607B6803F00703FB600C4BDB68B2
:1016DC00BB60BA684FF6FF031340BB60FB681A028D
:1016EC00BB68134343F0BF6343F40033BB60044A4D
:1016FC00BB68D36000BF1437BD4680BC704700BFC9
:10170C0000ED00E080B400AF044BDB681B0A03F073
:10171C0007031846BD4680BC704700BF00ED00E0D3
:10172C0080B483B000AF0346FB7197F90730002BF0
:10173C000BDBFB7903F01F02064997F907305B09B5
:10174C00012000FA02F241F8232000BF0C37BD46FD
:10175C0080BC704700E100E080B483B000AF03466A
:10176C003960FB7197F90730002B0ADB3B68DAB262
:10177C000C4997F907301201D2B20B4483F80023BD
:10178C000AE03B68DAB20849FB7903F00F03043B2B
:10179C001201D2B20B441A7600BF0C37BD4680BC86
:1017AC00704700BF00E100E000ED00E080B489B0BC
:1017BC0000AFF860B9607A60FB6803F00703FB6167
:1017CC00FB69C3F10703042B28BF0423BB61FB692E
:1017DC000433062B02D9FB69033B00E000237B6139
:1017EC004FF0FF32BB6902FA03F3DA43BB681A40CD
:1017FC007B699A404FF0FF317B6901FA03F3D943BF
:10180C007B680B40134318462437BD4680BC704799
:10181C0080B582B000AF78607B68013BB3F1807F0C
:10182C0001D301230FE00A4A7B68013B53600F216F
:10183C004FF0FF30FFF790FF054B00229A60044BEE
:10184C0007221A60002318460837BD4680BD00BF2A
:10185C0010E000E080B582B000AF78607868FFF7E8
:10186C002DFF00BF0837BD4680BD80B586B000AFE8
:10187C000346B9607A60FB7300237B61FFF742FF7C
:10188C0078617A68B9687869FFF790FF024697F932
:10189C000F3011461846FFF75FFF00BF1837BD46E3
:1018AC0080BD80B582B000AF0346FB7197F907305D
:1018BC001846FFF735FF00BF0837BD4680BD80B521
:1018CC0082B000AF78607868FFF7A2FF0346184635
:1018DC000837BD4680BD000080B483B000AF78608F
:1018EC007B68042B06D1094B1B68084A43F00403A0
:1018FC00136005E0054B1B68044A23F004031360D6
:10190C0000BF0C37BD4680BC704700BF10E000E044
:10191C0080B500AF00F002F800BF80BD80B400AF0E
:10192C0000BFBD4680BC704780B48BB000AF786000
:10193C00396000237B6200233B6269E101227B6AF0
:10194C0002FA03F3FB613B681B68FA691340BB6145
:10195C00BA69FB699A4240F058813B685B689A4AC5
:10196C0093425ED0984A934275D8984A934258D085
:10197C00964A93426FD8964A934252D0944A9342D5
:10198C0069D8944A93424CD0924A934263D8924A73
:10199C00934246D0904A93425DD8122B2AD8122BF0
:1019AC0059D801A252F823F02F1A0008091A00087E
:1019BC001B1A00085D1A0008631A0008631A000855
:1019CC00631A0008631A0008631A0008631A0008F7
:1019DC00631A0008631A0008631A0008631A0008E7
:1019EC00631A0008631A0008631A0008111A000829
:1019FC00251A0008794A934213D02CE03B68DB6827
:101A0C003B6229E03B68DB6804333B6224E03B68C3
:101A1C00DB6808333B621FE03B68DB680C333B62DE
:101A2C001AE03B689B68002B02D104233B6213E055
:101A3C003B689B68012B05D108233B627B68FA69E4
:101A4C001A6109E008233B627B68FA695A6103E07A
:101A5C0000233B6200E000BFBB69FF2B01D87B6811
:101A6C0001E07B6804337B61BB69FF2B02D87B6A86
:101A7C009B0002E07B6A083B9B003B617B691A6818
:101A8C000F213B6901FA03F3DB431A40396A3B69C6
:101A9C0001FA03F31A437B691A603B685B6803F035
:101AAC008053002B00F0B1804D4B9B694C4A43F0A6
:101ABC00010393614A4B9B6903F00103BB60BB6854
:101ACC00484A7B6A9B08023352F82330FB607B6ADE
:101ADC0003F003039B000F2202FA03F3DB43FA68C3
:101AEC001340FB607B68404A934213D07B683F4AAB
:101AFC0093420DD07B683E4A934207D07B683D4AA7
:101B0C00934201D1032306E0042304E0022302E004
:101B1C00012300E000237A6A02F003029200934052
:101B2C00FA681343FB602F497B6A9B080233FA68FF
:101B3C0041F823203B685B6803F48013002B06D02C
:101B4C002D4B9A682C49BB6913438B6006E02A4BDA
:101B5C009A68BB69DB43284913408B603B685B6820
:101B6C0003F40013002B06D0234BDA682249BB691F
:101B7C001343CB6006E0204BDA68BB69DB431E499C
:101B8C001340CB603B685B6803F40033002B06D03A
:101B9C00194B5A681849BB6913434B6006E0164B46
:101BAC005A68BB69DB43144913404B603B685B6864
:101BBC0003F48033002B21D00F4B1A680E49BB69FC
:101BCC0013430B6021E000BF000032100000311005
:101BDC000000221000002110000012100000111053
:101BEC00001002400000014000080140000C0140C0
:101BFC000010014000140140000401400B4B1A6816
:101C0C00BB69DB43094913400B607B6A01337B6280
:101C1C003B681A687B6A22FA03F3002B7FF48EAEC2
:101C2C0000BF00BF2C37BD4680BC7047000401408C
:101C3C0080B582B000AF0346FB80084B5A69FB8825
:101C4C001340002B06D0054AFB885361FB881846CD
:101C5C00FEF71EFC00BF0837BD4680BD00040140E6
:101C6C0080B586B000AF78607B68002B01D1012372
:101C7C006CE27B681B6803F00103002B00F087808B
:101C8C00924B5B6803F00C03042B0CD08F4B5B68FE
:101C9C0003F00C03082B12D18C4B5B6803F48033DC
:101CAC00B3F5803F0BD1894B1B6803F40033002B39
:101CBC006CD07B685B68002B68D1012346E27B68A3
:101CCC005B68B3F5803F06D1804B1B687F4A43F4B9
:101CDC00803313602EE07B685B68002B0CD17B4B50
:101CEC001B687A4A23F480331360784B1B68774A5D
:101CFC0023F4802313601DE07B685B68B3F5A02F91
:101D0C000CD1724B1B68714A43F4802313606F4BE8
:101D1C001B686E4A43F4803313600BE06B4B1B68FB
:101D2C006A4A23F480331360684B1B68674A23F4B8
:101D3C00802313607B685B68002B13D0FEF774FE66
:101D4C00386108E0FEF770FE02463B69D31A642B3B
:101D5C0001D90323FAE15D4B1B6803F40033002B1C
:101D6C00F0D014E0FEF760FE386108E0FEF75CFE90
:101D7C0002463B69D31A642B01D90323E6E1534B8A
:101D8C001B6803F40033002BF0D100E000BF7B682C
:101D9C001B6803F00203002B63D04C4B5B6803F011
:101DAC000C03002B0BD0494B5B6803F00C03082B86
:101DBC001CD1464B5B6803F48033002B16D1434B8C
:101DCC001B6803F00203002B05D07B681B69012BF9
:101DDC0001D00123BAE13D4B1B6823F0F8027B686C
:101DEC005B69DB00394913430B603AE07B681B6984
:101DFC00002B20D0364B01221A60FEF715FE3861FD
:101E0C0008E0FEF711FE02463B69D31A022B01D9FA
:101E1C0003239BE12D4B1B6803F00203002BF0D036
:101E2C002A4B1B6823F0F8027B685B69DB002749AF
:101E3C0013430B6015E0264B00221A60FEF7F4FDED
:101E4C00386108E0FEF7F0FD02463B69D31A022B1D
:101E5C0001D903237AE11D4B1B6803F00203002B0D
:101E6C00F0D17B681B6803F00803002B3AD07B6829
:101E7C009B69002B19D0174B01221A60FEF7D4FD79
:101E8C00386108E0FEF7D0FD02463B69D31A022BFD
:101E9C0001D903235AE10D4B5B6A03F00203002BBB
:101EAC00F0D0012000F0CCFA1CE00A4B00221A60A2
:101EBC00FEF7BAFD38610FE0FEF7B6FD02463B694E
:101ECC00D31A022B08D9032340E100BF00100240B3
:101EDC0000004242800442429E4B5B6A03F00203C4
:101EEC00002BE9D17B681B6803F00403002B00F086
:101EFC00A6800023FB75974BDB6903F08053002B06
:101F0C000DD1944BDB69934A43F08053D361914BD1
:101F1C00DB6903F08053BB60BB680123FB758E4B00
:101F2C001B6803F48073002B18D18B4B1B688A4AF7
:101F3C0043F480731360FEF777FD386108E0FEF719
:101F4C0073FD02463B69D31A642B01D90323FDE0D0
:101F5C00814B1B6803F48073002BF0D07B68DB682B
:101F6C00012B06D17B4B1B6A7A4A43F001031362A7
:101F7C002DE07B68DB68002B0CD1764B1B6A754A15
:101F8C0023F001031362734B1B6A724A23F00403A0
:101F9C0013621CE07B68DB68052B0CD16D4B1B6A54
:101FAC006C4A43F0040313626A4B1B6A694A43F0A0
:101FBC00010313620BE0674B1B6A664A23F00103B3
:101FCC001362644B1B6A634A23F0040313627B683D
:101FDC00DB68002B15D0FEF727FD38610AE0FEF711
:101FEC0023FD02463B69D31A41F28832934201D950
:101FFC000323ABE0574B1B6A03F00203002BEED01C
:10200C0014E0FEF711FD38610AE0FEF70DFD024603
:10201C003B69D31A41F28832934201D9032395E0EC
:10202C004C4B1B6A03F00203002BEED1FB7D012B02
:10203C0005D1484BDB69474A23F08053D3617B6859
:10204C00DB69002B00F08180424B5B6803F00C03D2
:10205C00082B61D07B68DB69022B46D13F4B0022F9
:10206C001A60FEF7E1FC386108E0FEF7DDFC024681
:10207C003B69D31A022B01D9032367E0354B1B684C
:10208C0003F00073002BF0D17B681B6AB3F5803F23
:10209C0008D1304B5B6823F400327B689B682D4978
:1020AC0013434B602B4B5B6823F474127B68196AE7
:1020BC007B685B6A0B43274913434B60274B012218
:1020CC001A60FEF7B1FC386108E0FEF7ADFC024681
:1020DC003B69D31A022B01D9032337E01D4B1B6834
:1020EC0003F00073002BF0D02FE01C4B00221A6081
:1020FC00FEF79AFC386108E0FEF796FC02463B6955
:10210C00D31A022B01D9032320E0124B1B6803F0D6
:10211C000073002BF0D118E07B68DB69012B01D137
:10212C00012313E00B4B5B68FB60FB6803F480320C
:10213C007B681B6A9A4206D1FB6803F470127B68B9
:10214C005B6A9A4201D0012300E00023184618373D
:10215C00BD4680BD0010024000700040600042424D
:10216C0080B584B000AF786039607B68002B01D1FA
:10217C000123D0E06A4B1B6803F007033A689A42CC
:10218C0010D9674B1B6823F0070265493B68134362
:10219C000B60634B1B6803F007033A689A4201D04B
:1021AC000123B8E07B681B6803F00203002B20D0EE
:1021BC007B681B6803F00403002B05D0594B5B684C
:1021CC00584A43F4E06353607B681B6803F00803D0
:1021DC00002B05D0534B5B68524A43F46053536059
:1021EC00504B5B6823F0F0027B689B684D491343AE
:1021FC004B607B681B6803F00103002B40D07B68AD
:10220C005B68012B07D1474B1B6803F40033002B91
:10221C0015D101237FE07B685B68022B07D1414B12
:10222C001B6803F00073002B09D1012373E03D4BB5
:10223C001B6803F00203002B01D101236BE0394B27
:10224C005B6823F003027B685B68364913434B6081
:10225C00FEF7EAFBF8600AE0FEF7E6FB0246FB68D5
:10226C00D31A41F28832934201D9032353E02D4B08
:10227C005B6803F00C027B685B689B009A42EBD1B5
:10228C00274B1B6803F007033A689A4210D2244B81
:10229C001B6823F0070222493B6813430B60204B59
:1022AC001B6803F007033A689A4201D0012332E01D
:1022BC007B681B6803F00403002B08D0194B5B6888
:1022CC0023F4E0627B68DB68164913434B607B6840
:1022DC001B6803F00803002B09D0124B5B6823F436
:1022EC0060527B681B69DB000E4913434B6000F0A6
:1022FC0021F802460B4B5B681B0903F00F030A49DC
:10230C00CB5C22FA03F3094A1360094B1B6818468D
:10231C00FEF748FB002318461037BD4680BD00BFB2
:10232C00002002400010024084320008000000200F
:10233C000400002080B487B000AF0023FB600023B2
:10234C00BB6000237B6100237B6000233B611E4B41
:10235C005B68FB60FB6803F00C03042B02D0082BBA
:10236C0003D027E0194B3B6127E0FB689B0C03F083
:10237C000F03174AD35C7B60FB6803F48033002B9C
:10238C0010D0114B5B685B0C03F00103114AD35C5A
:10239C00BB607B680D4A02FB03F2BB68B2FBF3F334
:1023AC007B6104E07B680C4A02FB03F37B617B6975
:1023BC003B6102E0054B3B6100BF3B6918461C3793
:1023CC00BD4680BC704700BF0010024000127A006E
:1023DC009C320008AC32000800093D0080B400AF0C
:1023EC00024B1B681846BD4680BC7047000000209D
:1023FC0080B500AFFFF7F2FF0246054B5B681B0A86
:10240C0003F007030349CB5C22FA03F3184680BDA3
:10241C00001002409432000880B500AFFFF7DEFFD9
:10242C000246054B5B68DB0A03F007030349CB5CF0
:10243C0022FA03F3184680BD0010024094320008C3
:10244C0080B485B000AF78600A4B1B680A4AA2FBC7
:10245C0003235B0A7A6802FB03F3FB6000BFFB6893
:10246C005A1EFA60002BF9D100BF00BF1437BD46CD
:10247C0080BC704700000020D34D621080B582B044
:10248C0000AF78607B68002B01D1012342E07B68B0
:10249C0093F84130DBB2002B06D17B68002283F825
:1024AC0040207868FEF74CF97B68242283F84120A1
:1024BC007B681B68DA687B681B6822F40052DA6060
:1024CC00786800F071F97B681B681A697B681B6877
:1024DC0022F490421A617B681B685A697B681B68FE
:1024EC0022F02A025A617B681B68DA687B681B68D9
:1024FC0042F40052DA607B6800225A647B68202226
:10250C0083F841207B68202283F842207B680022DC
:10251C005A63002318460837BD4680BD80B58AB083
:10252C0002AFF860B9603B601346FB8000237B610F
:10253C00FB6893F84130DBB2202B75D1BB68002BC4
:10254C0002D0FB88002B01D101236EE0FB68002236
:10255C005A64FB68212283F84120FEF765FA786102
:10256C00FB68FA889A84FB68FA88DA84FB689B68B3
:10257C00B3F5805F08D1FB681B69002B04D10023E5
:10258C00FB61BB68BB6103E0BB68FB610023BB6103
:10259C002EE03B6800937B6900228021F86800F0F4
:1025AC0048F80346002B05D0FB68202283F8412015
:1025BC0003233AE0FB69002B0BD1BB691B881A463D
:1025CC00FB681B68C2F308025A60BB690233BB612B
:1025DC0007E0FB691A78FB681B685A60FB690133DA
:1025EC00FB61FB68DB8C9BB2013B9AB2FB68DA8423
:1025FC00FB68DB8C9BB2002BCBD13B6800937B69D7
:10260C0000224021F86800F014F80346002B05D096
:10261C00FB68202283F84120032306E0FB6820227C
:10262C0083F84120002300E0022318462037BD46E2
:10263C0080BD80B586B000AFF860B9603B601346D2
:10264C00FB713BE03B6AB3F1FF3F37D0FEF7ECF98F
:10265C0002463B68D31A3A6A9A4202D33B6A002B71
:10266C0001D103233AE0FB681B68DB6803F0040329
:10267C00002B23D0BB68802B20D0BB68402B1DD0F7
:10268C00FB681B681B6803F00803082B16D100239A
:10269C007B61FB681B681B687B61FB681B685B6864
:1026AC007B617B69F86800F01DF8FB6808225A64AE
:1026BC00FB68002283F8402001230FE0FB681B68B5
:1026CC001A68BB681340BA689A420CBF01230023F6
:1026DC00DBB21A46FB799A42B4D00023184618375D
:1026EC00BD4680BD80B495B000AF78607B681B6838
:1026FC000C337B637B6B53E8003F3B633B6B23F4F6
:10270C009073FB647B681B680C33FA6C3A64FB6354
:10271C00F96B3A6C41E80023BB63BB6B002BE5D132
:10272C007B681B6814333B623B6A53E8003FFB61D8
:10273C00FB6923F00103BB647B681B681433BA6C20
:10274C00FA62BB62B96AFA6A41E800237B627B6A6F
:10275C00002BE5D17B681B6B012B19D17B681B68A7
:10276C000C33FB60FB6853E8003FBB60BB6823F095
:10277C0010037B647B681B680C337A6CBA617B61D9
:10278C007969BA6941E800233B613B69002BE5D1CB
:10279C007B68202283F842207B6800221A6300BFEA
:1027AC005437BD4680BC704780B584B000AF7860AC
:1027BC007B681B681B6923F440517B68DA687B6873
:1027CC001B680A431A617B689A687B681B691A4309
:1027DC007B685B691343BB607B681B68DB6823F415
:1027EC00B05323F00C037A681268B9680B43D360BA
:1027FC007B681B685B6923F440717B689A697B6812
:10280C001B680A435A617B681B682C4A934203D1AC
:10281C00FFF702FEF86002E0FFF7EAFDF860FA68E5
:10282C0013469B0013449A001A447B685B689B0018
:10283C00B2FBF3F3224AA2FB03235B091901FA68EA
:10284C0013469B0013449A001A447B685B689B00F8
:10285C00B2FBF3F21A4BA3FB02035B09642000FBEF
:10286C0003F3D31A1B013233154AA2FB03235B0972
:10287C0003F0F0031944FA6813469B0013449A00C2
:10288C001A447B685B689B00B2FBF3F20C4BA3FB16
:10289C0002035B09642000FB03F3D31A1B013233E0
:1028AC00074AA2FB03235B0903F00F027B681B683A
:1028BC000A449A6000BF1037BD4680BD0038014005
:1028CC001F85EB51014B1868704700BF0C000020AE
:1028DC0070B500260C4D0D4C641BA410A64209D1FA
:1028EC0000F05CFC00260A4D0A4C641BA410A642A6
:1028FC0005D170BD55F8043B98470136EEE755F805
:10290C00043B98470136F2E7E4320008E432000851
:10291C00E4320008E832000803460244934200D136
:10292C00704703F8011BF9E700B59BB000910491C7
:10293C006FF000410591029105490391694600F041
:10294C006FF80022009B1A701BB05DF804FB00BFEF
:10295C000802FFFF13460A46014602480068FFF7CB
:10296C00E3BF00BF0C0000202DE9F0478E688246C3
:10297C009E420C4690461F4638D88A8912F4906FB6
:10298C0032D0256809690133A5EB010965694B440F
:10299C0005EB450505EBD5756D109D4238BF1D4601
:1029AC00530531D5294600F053FB064650B90C238C
:1029BC004FF0FF30CAF80030A38943F04003A381E5
:1029CC00BDE8F0874A46216900F0CEFAA38923F4CA
:1029DC00906343F08003A38126614E4426603E46FB
:1029EC006561A5EB0905A560BE4200D93E4632469D
:1029FC004146206800F0C6FAA36822689B1B32444B
:102A0C000020A3602260DBE72A4600F07BFB064631
:102A1C000028E1D15046216900F0CEFAC7E700004A
:102A2C002DE9F04F98468B8907461B060D46144638
:102A3C009DB00ED50B6963B9402100F009FB2860ED
:102A4C00286120B90C233B604FF0FF30D1E04023CC
:102A5C006B610023099320238DF8293030234FF02C
:102A6C000109CDF80C80DFF8A4818DF82A302346BB
:102A7C009A4613F8012B0AB1252AF9D1BAEB040BAB
:102A8C000BD05B46224629463846FFF76DFF0130D6
:102A9C0000F0AA80099A5A4409929AF80030002B47
:102AAC0000F0A28000234FF0FF32CDE905230AF19C
:102ABC00010A049307938DF853301A935446052258
:102ACC0014F8011B514800F041FA049AD8B9D00609
:102ADC0044BF20238DF85330110744BF2B238DF8AE
:102AEC0053309AF800302A2B15D0544600204FF062
:102AFC000A0C079A214611F8013B303B092B4ED9A1
:102B0C00B0B1079214E0A0EB080309FA03F31343E6
:102B1C00A2460493D2E7039B191D1B680391002B5B
:102B2C00BBBF5B4242F0020207930793B8BF04920B
:102B3C0023782E2B0CD163782A2B35D1039B0234AE
:102B4C001A1D1B680392002BB8BF4FF0FF3305937F
:102B5C00DFF8C8A003225046217800F0F7F940B105
:102B6C004023A0EB0A0003FA00F0049B013403435A
:102B7C00049314F8011B062225488DF8281000F048
:102B8C00E5F9002838D0234B1BBB039B073323F0FC
:102B9C00070308330393099B3344099367E70C46F7
:102BAC0001200CFB0232A5E700234FF00A0C19465A
:102BBC0001340593204610F8012B303A092A03D929
:102BCC00002BC5D00591C3E7044601230CFB012162
:102BDC00F0E703AB00932A4638460F4B04A9AFF33A
:102BEC000080421C0646D6D1AB895B063FF52CAF64
:102BFC0009981DB0BDE8F08F03AB00932A46384608
:102C0C00054B04A900F07CF8EBE700BFAE320008DE
:102C1C00B83200080000000075290008B432000822
:102C2C002DE9F047164699468A680B690746934288
:102C3C00B8BF1346336091F843200C46DDF8208072
:102C4C000AB1013333602368990642BF33680233FB
:102C5C003360256815F0060506D104F1190AE368FE
:102C6C0032689B1AAB4228DC94F84320131E22686E
:102C7C0018BF012392062DD44946384604F143026D
:102C8C00C047013020D02368E56803F00603042B0D
:102C9C0018BF002532684FF00006A36808BFAD1AB4
:102CAC00226908BF25EAE5759342C4BF9B1AED184B
:102CBC001A34B5421AD1002008E001235246494685
:102CCC003846C047013003D14FF0FF30BDE8F087E4
:102CDC000135C4E73020E11881F843005A1C94F800
:102CEC0045102244023382F84310C5E701232246E3
:102CFC0049463846C0470130E6D00136D9E70000D6
:102D0C002DE9FF470C46277E9146782F80469A4640
:102D1C000C9904F1430207D8622F0AD8002F00F057
:102D2C00D980582F00F0A48004F1420684F8427038
:102D3C003AE0A7F16303152BF6D801A050F823F065
:102D4C00A52D0008B92D0008352D0008352D0008DB
:102D5C00352D0008352D0008B92D0008352D00083B
:102D6C00352D0008352D0008352D0008C72E00081C
:102D7C00E92D0008A92E0008352D0008352D000876
:102D8C00E92E0008352D0008E92D0008352D000826
:102D9C00352D0008B12E00080B6804F142061A1DEF
:102DAC001B680A6084F842300123A4E02568086897
:102DBC002E0600F104030AD505680B60002D03DA1A
:102DCC002D236D4284F843300A235E4819E015F038
:102DDC00400F05680B6018BF2DB2EFE70B68256834
:102DEC00181D0860280601D51D6802E06906FBD590
:102DFC001D886F2F0CBF08230A235248002184F82A
:102E0C0043106668002EA8BF2168A660A4BF21F0FD
:102E1C00040121600DB9002E4DD01646B5FBF3F11F
:102E2C0003FB1157C75D06F8017D2F46BB420D46CB
:102E3C00F4D9082B0BD12368DF0708D52369616807
:102E4C009942DEBF302306F8013C06F1FF36921B97
:102E5C0022614B4621464046CDF800A003AAFFF75D
:102E6C00DFFE01304CD14FF0FF3004B0BDE8F087ED
:102E7C00344884F845700E68236856F8045B1F06C6
:102E8C000E6014D5D90744BF43F0200323601DB94D
:102E9C00236823F0200323601023AFE7236843F05B
:102EAC00200323607823284884F84530E3E75E0646
:102EBC0048BFADB2E6E71646BBE70B6826681D1D9A
:102ECC0060690D6035061B6801D5186002E071065B
:102EDC00FBD51880002316462361BAE70B681A1D30
:102EEC000A601E6800213046626800F02FF808B1B5
:102EFC00801B606063682361002384F84330A8E77B
:102F0C003246494640462369D0470130ABD023684E
:102F1C009B0713D4E068039B9842B8BF1846A4E7FC
:102F2C000123324649464046D04701309BD00135FB
:102F3C00E36803995B1AAB42F2DCEBE7002504F182
:102F4C001906F5E7BF320008D0320008034610B569
:102F5C00C9B202449342184601D1002003E0047820
:102F6C0001338C42F6D110BD0A44914200F1FF337B
:102F7C0000D1704710B511F8014B914203F8014F85
:102F8C00F9D110BD884210B501EB020402D984427C
:102F9C00234607D8431EA14208D011F8012B03F891
:102FAC00012FF8E7014602448A4200D110BD13F804
:102FBC00014D02F8014DF7E738B50546002943D01D
:102FCC0051F8043C0C1F002BB8BFE41800F0D0F8EB
:102FDC001E4A1368104633B9636014602846BDE876
:102FEC00384000F0CBB8A3420AD92168621893424A
:102FFC0001BF1A685B685218226063600460EDE7D9
:10300C001A465B680BB1A342FAD911685018A0425A
:10301C000BD120680144501883421160DED118682E
:10302C005B68014411605360D8E702D90C232B6014
:10303C00D4E7206821188B4201BF19685B68091816
:10304C00216063605460C9E738BD00BF9000002068
:10305C00F8B5CD1C25F0030508350C2D38BF0C2513
:10306C00002D064601DBA94203D90C233360002056
:10307C00F8BD00F07DF821490A6814469CB9204F30
:10308C003B6823B92146304600F062F83860294687
:10309C00304600F05DF8431C23D10C2330463360DE
:1030AC0000F06CF8E3E723685B1B17D40B2B03D9F8
:1030BC0023601C44256004E06368A2420CBF0B60D3
:1030CC005360304600F05AF804F10B00231D20F039
:1030DC000700C21ACCD01B1AA350C9E72246646859
:1030EC00CCE7C41C24F00304A042E3D0211A3046E0
:1030FC0000F02EF80130DDD1CFE700BF90000020AA
:10310C0094000020F8B5074614460E4621B9114626
:10311C00BDE8F840FFF79CBF22B9FFF74DFF2546ED
:10312C002846F8BD00F030F8A0420FD221463846B0
:10313C00FFF78EFF05460028F2D031462246FFF7F6
:10314C0013FF31463846FFF737FFE9E73546E7E727
:10315C0038B50023054D044608462B60FDF7AAFB45
:10316C00431C02D12B6803B1236038BD0C01002035
:10317C00014800F011B800BF14010020014800F014
:10318C000CB800BF1401002051F8043C181F002B90
:10319C00BCBF0B58C018704770477047F8B500BFDC
:1031AC00F8BC08BC9E467047F8B500BFF8BC08BC1C
:0431BC009E46704774
:1031C000546869732069732043414E204C6F6F70BF
:1031D000204261636B2050726F6772616D6D696E22
:1031E000672054657374200A0000000048454C4C69
:1031F0004F0000004D65737361676520526563651C
:10320000697665205375636365737366756C6C7955
:103210003A202573200D0A004D65737361676520A0
:103220005472616E736D69747465643A204D302018
:103230000D0A00004D657373616765205472616EFD
:10324000736D69747465643A204D31200D0A000075
:103250004D657373616765205472616E736D697437
:103260007465643A204D32200D0A000043414E201F
:103270004572726F72204465746563746564200DD5
:103280000A0000000000000000000000010203042A
:1032900006070809000000000102030402030405F8
:1032A000060708090A0B0C0D0E0F10100102232D42
:1032B000302B2000686C4C0065666745464700303F
:1032C000313233343536373839414243444546008C
:1032D000303132333435363738396162636465668C
:0432E00000000000EA
:0432E40031010008AC
:0432E8000D010008CC
:1032EC0000127A0010000000010000001000002005
:1032FC0000000000000000000000000000000000C2
:10330C0000000000000000000000000000000000B1
:10331C0000000000000000000000000000000000A1
:10332C000000000000000000000000000000000091
:10333C000000000000000000000000000000000081
:10334C000000000000000000000000000000000071
:0400000508000939AD
:00000001FF
