:020000040800F2
:100000000050002029030008710300087103000854
:10001000710300087103000871030008000000006C
:100020000000000000000000000000007103000854
:100030007103000800000000710300084D01000872
:1000400071030008710300087103000871030008C0
:1000500071030008710300087103000871030008B0
:1000600071030008710300087103000871030008A0
:100070007103000871030008710300087103000890
:100080007103000871030008710300087103000880
:100090007103000871030008710300087103000870
:1000A0007103000871030008710300087103000860
:1000B0005D01000871030008710300087103000866
:1000C0007103000871030008710300087103000840
:1000D0007103000871030008710300087103000830
:1000E000710300087103000871030008000000009C
:1000F0000000000000000000000000000000000000
:0C01000000000000000000005FF808F1A3
:10010C0010B5054C237833B9044B13B10448AFF345
:10011C0000800123237010BD0C00002000000000A3
:10012C00440E000808B5034B1BB103490348AFF359
:10013C00008008BD0000000010000020440E0008E4
:10014C0080B500AF00F056F900F073FA00BF80BD27
:10015C0080B500AF024800F0B7FC00BF80BD00BF07
:10016C002800002080B500AF00F0FEF800F00AF87F
:10017C0000F02EF800F010F8014800F053FCFEE7F8
:10018C002800002080B400AF00BFBD4680BC704783
:10019C0080B400AFFEE7000080B500AF0B4B4FF012
:1001AC0080421A60094B00229A60084B41F63F725C
:1001BC005A60064B6322DA60044800F0E4FB034605
:1001CC00002B01D0FFF7E4FF00BF80BD280000200A
:1001DC0080B586B000AF0F4B9B690E4A43F0080305
:1001EC0093610C4B9B6903F008037B607B680123D4
:1001FC00FB600423BB6000233B6102237B6107F19E
:10020C0008031946044800F021FA00BF1837BD4610
:10021C0080BD00BF00100240000C014080B582B0D0
:10022C0000AF78600421034800F094FB00BF08374E
:10023C00BD4680BD000C014080B584B000AF0320EA
:10024C0000F0B6F9204B5B6A1F4A43F4E02353627B
:10025C00002200216FF00B0000F0B5F90022002104
:10026C006FF00A0000F0AFF9002200216FF00900D6
:10027C0000F0A9F9154B9B69144A43F001039361F3
:10028C00124B9B6903F00103BB60BB680F4BDB692E
:10029C000E4A43F08053D3610C4BDB6903F080535F
:1002AC007B607B680A4B5B68FB60FB6823F0E06358
:1002BC00FB60FB6843F00073FB60054AFB6853600E
:1002CC0000BF1037BD4680BD00ED00E000100240BD
:1002DC000000014080B584B000AF78600B4BDB6947
:1002EC000A4A43F00103D361084BDB6903F00103B5
:1002FC00FB60FB681C2000F082F900220F211C20FF
:10030C0000F061F900BF1037BD4680BD00100240FF
:10031C0080B400AF00BFBD4680BC7047FFF7F8FF4C
:10032C000B480C490C4A002302E0D458C450043347
:10033C00C4188C42F9D3094A094C002301E013601C
:10034C000432A242FBD300F053FDFFF70BFF7047C2
:10035C00000000200C000020640E00080C0000209F
:10036C0074000020FEE7000080B500AF084B1B684E
:10037C00074A43F010031360032000F019F90F2013
:10038C0000F008F8FFF758FF0023184680BD00BFA7
:10039C000020024080B582B000AF7860124B1A6822
:1003AC00124B1B7819464FF47A73B3FBF1F3B2FB83
:1003BC00F3F3184600F031F90346002B01D001236A
:1003CC000EE07B680F2B0AD8002279684FF0FF30C3
:1003DC0000F0F9F8064A7B681360002300E0012363
:1003EC0018460837BD4680BD0000002008000020DC
:1003FC000400002080B400AF054B1B781A46054B57
:10040C001B681344034A136000BFBD4680BC704791
:10041C00080000207000002080B485B000AF786028
:10042C007B6803F00703FB600C4BDB68BB60BA68AE
:10043C004FF6FF031340BB60FB681A02BB68134303
:10044C0043F0BF6343F40033BB60044ABB68D36022
:10045C0000BF1437BD4680BC704700BF00ED00E004
:10046C0080B400AF044BDB681B0A03F0070318468B
:10047C00BD4680BC704700BF00ED00E080B483B087
:10048C0000AF0346FB7197F90730002B0BDBFB79B0
:10049C0003F01F02064997F907305B09012000FAA7
:1004AC0002F241F8232000BF0C37BD4680BC7047D8
:1004BC0000E100E080B483B000AF03463960FB710B
:1004CC0097F90730002B0ADB3B68DAB20C4997F935
:1004DC0007301201D2B20B4483F800230AE03B68C8
:1004EC00DAB20849FB7903F00F03043B1201D2B2D4
:1004FC000B441A7600BF0C37BD4680BC704700BF5A
:10050C0000E100E000ED00E080B489B000AFF860DD
:10051C00B9607A60FB6803F00703FB61FB69C3F108
:10052C000703042B28BF0423BB61FB690433062B90
:10053C0002D9FB69033B00E000237B614FF0FF32E3
:10054C00BB6902FA03F3DA43BB681A407B699A4031
:10055C004FF0FF317B6901FA03F3D9437B680B4001
:10056C00134318462437BD4680BC704780B582B013
:10057C0000AF78607B68013BB3F1807F01D301232E
:10058C000FE00A4A7B68013B53600F214FF0FF30AC
:10059C00FFF790FF054B00229A60044B07221A606C
:1005AC00002318460837BD4680BD00BF10E000E0B0
:1005BC0080B582B000AF78607868FFF72DFF00BF80
:1005CC000837BD4680BD80B586B000AF0346B96024
:1005DC007A60FB7300237B61FFF742FF78617A68D6
:1005EC00B9687869FFF790FF024697F90F3011460A
:1005FC001846FFF75FFF00BF1837BD4680BD80B5BA
:10060C0082B000AF0346FB7197F907301846FFF72D
:10061C0035FF00BF0837BD4680BD80B582B000AF46
:10062C0078607868FFF7A2FF034618460837BD4686
:10063C0080BD80B500AF00F002F800BF80BD80B473
:10064C0000AF00BFBD4680BC7047000080B48BB0CB
:10065C0000AF7860396000237B6200233B6269E164
:10066C0001227B6A02FA03F3FB613B681B68FA699F
:10067C001340BB61BA69FB699A4240F058813B68F0
:10068C005B689A4A93425ED0984A934275D8984ACE
:10069C00934258D0964A93426FD8964A934252D07E
:1006AC00944A934269D8944A93424CD0924A9342CA
:1006BC0063D8924A934246D0904A93425DD8122B0B
:1006CC002AD8122B59D801A252F823F0530700084C
:1006DC002D0700083F07000881070008870700085E
:1006EC0087070008870700088707000887070008A6
:1006FC008707000887070008870700088707000896
:10070C008707000887070008870700088707000885
:10071C003507000849070008794A934213D02CE0AA
:10072C003B68DB683B6229E03B68DB6804333B6277
:10073C0024E03B68DB6808333B621FE03B68DB6806
:10074C000C333B621AE03B689B68002B02D10423FC
:10075C003B6213E03B689B68012B05D108233B628D
:10076C007B68FA691A6109E008233B627B68FA69C5
:10077C005A6103E000233B6200E000BFBB69FF2B22
:10078C0001D87B6801E07B6804337B61BB69FF2B7C
:10079C0002D87B6A9B0002E07B6A083B9B003B61B2
:1007AC007B691A680F213B6901FA03F3DB431A409A
:1007BC00396A3B6901FA03F31A437B691A603B6897
:1007CC005B6803F08053002B00F0B1804D4B9B69AC
:1007DC004C4A43F0010393614A4B9B6903F00103BC
:1007EC00BB60BB68484A7B6A9B08023352F82330D3
:1007FC00FB607B6A03F003039B000F2202FA03F3F6
:10080C00DB43FA681340FB607B68404A934213D089
:10081C007B683F4A93420DD07B683E4A934207D097
:10082C007B683D4A934201D1032306E0042304E094
:10083C00022302E0012300E000237A6A02F00302A3
:10084C0092009340FA681343FB602F497B6A9B0824
:10085C000233FA6841F823203B685B6803F4801389
:10086C00002B06D02D4B9A682C49BB6913438B6027
:10087C0006E02A4B9A68BB69DB43284913408B601E
:10088C003B685B6803F40013002B06D0234BDA683B
:10089C002249BB691343CB6006E0204BDA68BB6985
:1008AC00DB431E491340CB603B685B6803F40033A9
:1008BC00002B06D0194B5A681849BB6913434B607F
:1008CC0006E0164B5A68BB69DB43144913404B6076
:1008DC003B685B6803F48033002B21D00F4B1A6804
:1008EC000E49BB6913430B6021E000BF00003210BE
:1008FC000000311000002210000021100000121026
:10090C0000001110001002400000014000080140DE
:10091C00000C014000100140001401400004014093
:10092C000B4B1A68BB69DB43094913400B607B6AAC
:10093C0001337B623B681A687B6A22FA03F3002B53
:10094C007FF48EAE00BF00BF2C37BD4680BC704715
:10095C000004014080B485B000AF78600B467B800A
:10096C007B68DB68FB607A88FB6813401A04FB68C1
:10097C00D9437B880B401A437B681A6100BF14373C
:10098C00BD4680BC704780B582B000AF78607B6894
:10099C00002B01D1012341E07B6893F83D30DBB2A1
:1009AC00002B06D17B68002283F83C207868FFF787
:1009BC0091FC7B68022283F83D207B681A687B6877
:1009CC0004331946104600F093F97B68012283F832
:1009DC0046207B68012283F83E207B68012283F845
:1009EC003F207B68012283F840207B68012283F83A
:1009FC0041207B68012283F842207B68012283F826
:100A0C0043207B68012283F844207B68012283F811
:100A1C0045207B68012283F83D20002318460837C7
:100A2C00BD4680BD80B485B000AF78607B6893F81C
:100A3C003D30DBB2012B01D001233AE07B6802226E
:100A4C0083F83D207B681B68DA687B681B6842F082
:100A5C000102DA607B681B68184A93420ED07B68EF
:100A6C001B68B3F1804F09D07B681B68144A934212
:100A7C0004D07B681B68134A934211D17B681B68B6
:100A8C009B6803F00703FB60FB68062B10D07B68A8
:100A9C001B681A687B681B6842F001021A6007E049
:100AAC007B681B681A687B681B6842F001021A603D
:100ABC00002318461437BD4680BC7047002C0140FB
:100ACC00000400400008004080B584B000AF78609E
:100ADC007B681B68DB68FB607B681B681B69BB6001
:100AEC00BB6803F00203002B20D0FB6803F0020369
:100AFC00002B1BD07B681B686FF002021A617B68AD
:100B0C0001221A777B681B689B6903F00303002B97
:100B1C0003D0786800F0D1F805E0786800F0C4F8EC
:100B2C00786800F0D3F87B6800221A77BB6803F072
:100B3C000403002B20D0FB6803F00403002B1BD014
:100B4C007B681B686FF004021A617B6802221A77BB
:100B5C007B681B689B6903F44073002B03D0786897
:100B6C0000F0ABF805E0786800F09EF8786800F0CB
:100B7C00ADF87B6800221A77BB6803F00803002BE2
:100B8C0020D0FB6803F00803002B1BD07B681B688C
:100B9C006FF008021A617B6804221A777B681B6865
:100BAC00DB6903F00303002B03D0786800F085F8B1
:100BBC0005E0786800F078F8786800F087F87B68D2
:100BCC0000221A77BB6803F01003002B20D0FB68BF
:100BDC0003F01003002B1BD07B681B686FF0100216
:100BEC001A617B6808221A777B681B68DB6903F43F
:100BFC004073002B03D0786800F05FF805E078684C
:100C0C0000F052F8786800F061F87B6800221A77DF
:100C1C00BB6803F00103002B0CD0FB6803F001034D
:100C2C00002B07D07B681B686FF001021A61786893
:100C3C00FFF7F4FABB6803F08003002B0CD0FB68C1
:100C4C0003F08003002B07D07B681B686FF08002D9
:100C5C001A61786800F0C3F8BB6803F04003002BFE
:100C6C000CD0FB6803F04003002B07D07B681B689B
:100C7C006FF040021A61786800F031F8BB6803F03D
:100C8C002003002B0CD0FB6803F02003002B07D0B3
:100C9C007B681B686FF020021A61786800F096F888
:100CAC0000BF1037BD4680BD80B483B000AF786004
:100CBC0000BF0C37BD4680BC704780B483B000AF1A
:100CCC00786000BF0C37BD4680BC704780B483B0E1
:100CDC0000AF786000BF0C37BD4680BC704780B455
:100CEC0083B000AF786000BF0C37BD4680BC704746
:100CFC0080B485B000AF786039607B681B68FB609E
:100D0C007B682F4A93420BD07B68B3F1804F07D09E
:100D1C007B682C4A934203D07B682B4A934208D1C0
:100D2C00FB6823F07003FB603B685B68FA68134355
:100D3C00FB607B68224A93420BD07B68B3F1804FF7
:100D4C0007D07B681F4A934203D07B681E4A9342AC
:100D5C0008D1FB6823F44073FB603B68DB68FA68DE
:100D6C001343FB60FB6823F080023B685B69134311
:100D7C00FB607B68FA681A603B689A687B68DA6289
:100D8C003B681A687B689A627B680D4A934203D170
:100D9C003B681A697B681A637B6801225A617B681D
:100DAC001B6903F00103002B05D07B681B6923F042
:100DBC0001027B681A6100BF1437BD4680BC7047C6
:100DCC00002C0140000400400008004080B483B0B7
:100DDC0000AF786000BF0C37BD4680BC704780B454
:100DEC0083B000AF786000BF0C37BD4680BC704745
:100DFC0070B500260C4D0D4C641BA410A64209D1F5
:100E0C0000F01AF800260A4D0A4C641BA410A642E6
:100E1C0005D170BD55F8043B98470136EEE755F8FF
:100E2C00043B98470136F2E75C0E00085C0E0008A4
:100E3C005C0E0008600E0008F8B500BFF8BC08BCDA
:100E4C009E467047F8B500BFF8BC08BC9E4670477C
:040E5C003101000858
:040E60000D01000878
:0C0E640000127A001000000001000000E5
:0400000508000329C3
:00000001FF
